:100000000C949E000C94BB000C94BB000C94BB00A1
:100010000C94BB000C94F5000C94BB000C94BB003A
:100020000C94BB000C94BB000C94BB000C94BB0064
:100030000C94BB000C94BB000C94BB000C94BB0054
:100040000C943B080C94BB000C94BB000C94BB00BC
:100050000C946B070C9429070C94BB000C94BB0008
:100060000C94BB000C94BB000C94BB000C94BB0024
:100070000C94BB000C94BB000C94BB0047726565EC
:100080006E2053636F72653A25336400477265656D
:100090006E2053636F72653A2533640052656420A5
:1000A00053636F72653A20202533640052656420E3
:1000B00053636F72653A2020253364005072657374
:1000C00073206120627574746F6E20746F20737476
:1000D00061727420616761696E0047414D45204F30
:1000E0005645520043535345323031302F3732306A
:1000F000312070726F6A656374206279205072617A
:100100006E61792C2053747564656E74204E756D24
:100110006265723A203436343434363735005265ED
:100120007665727369001B5B3F32356C001B5B3276
:100130004A001B5B25643B256448000011241FBE58
:10014000CFEFD8E0DEBFCDBF11E0A0E0B1E0EEE937
:10015000F7E102C005900D92A433B107D9F722E070
:10016000A4E3B1E001C01D92A23AB207E1F70E94F8
:1001700065060C94CD0B0C940000E8E6F0E080815D
:10018000826080838BB382608BBBECE6F0E0808181
:10019000876080831092340108958091340118168D
:1001A00014F5809135016FB7F89491E009C0F90119
:1001B000EB5CFE4F4081F901EC5CFE4F40839F5F9A
:1001C000292F30E040913401042E000C550B2417E8
:1001D00035076CF39091340191509093340166236C
:1001E0001CF4789408958FEF08951F920F920FB624
:1001F0000F9211242F933F934F938F939F93EF93DD
:10020000FF9343B1477080E026C090913401943051
:100210000CF5242F30E0082E02C0359527950A945E
:10022000E2F720FF17C02091390130E0082E02C00C
:10023000359527950A94E2F720FD0CC0E091340132
:1002400091E09E0F909334010E2E000CFF0BEB5C9F
:10025000FE4F80838F5F8330C0F240933901FF915E
:10026000EF919F918F914F913F912F910F900FBEE2
:100270000F901F9018950F931F93CF93DF93CDB7D7
:10028000DEB728970FB6F894DEBF0FBECDBF0E9431
:100290004E0580E090E009C0E1E0F0E0EC0FFD1FCA
:1002A000E80FF91F25E32083019688309105A4F318
:1002B00000E010E008C0BE016F5F7F4F802F0E94FA
:1002C00031050F5F1F4F04301105ACF30CE010E057
:1002D00008C0BE016F5F7F4F802F0E9431050F5F06
:1002E0001F4F00311105ACF328960FB6F894DEBF0E
:1002F0000FBECDBFDF91CF911F910F9108951F9336
:10030000CF93DF93CDB7DEB728970FB6F894DEBF53
:100310000FBECDBF0E944E0510E029C0E12FF0E0D6
:10032000E45EFE4F908190FF02C02FE001C020EFFD
:1003300087E013C0992344F4E1E0F0E0EC0FFD1FE7
:10034000E80FF11D208307C0E1E0F0E0EC0FFD1F96
:10035000E80FF11D1082990F81508111EBCF1982A6
:10036000BE016F5F7F4F812F0E9431051F5F1031EB
:10037000A8F228960FB6F894DEBF0FBECDBFDF916E
:10038000CF911F910895413041F0423041F0433008
:1003900041F0453041F445EA07C04FE005C040EF69
:1003A00003C04CE301C040E08C5F0E941205089539
:1003B000CF930E943B0190E013C0E92FF0E0EE0FD5
:1003C000FF1FEE0FFF1FEE0FFF1FEB5BFE4FE80F4F
:1003D000F11D10828F5F01C080E0883070F39F5F55
:1003E0009830D0F3C0E01AC0EC2FF0E0EE0FFF1F02
:1003F000E05DFE4F80816181E82FF0E0EE0FFF1F8E
:10040000EE0FFF1FEE0FFF1FEB5BFE4FE60FF11D20
:1004100091E0908341E00E94C301CF5FC23020F39E
:10042000C0E01AC0EC2FF0E0EE0FFF1FE45DFE4FBE
:1004300080816181E82FF0E0EE0FFF1FEE0FFF1FBC
:10044000EE0FFF1FEB5BFE4FE60FF11D92E0908376
:1004500042E00E94C301CF5FC23020F381E080936D
:10046000850185E08093870183E0809344011092A9
:100470008601CF910895883080F4683080F4E82FA9
:10048000F0E0EE0FFF1FEE0FFF1FEE0FFF1FEB5B05
:10049000FE4FE60FF11D8081089580E0089580E011
:1004A000089582B1867082B980918501813019F4F6
:1004B00082B1826082B980918501823019F482B163
:1004C000846082B9089518B890913A0181E0891B3F
:1004D00080933A0180918501813009F057C0809165
:1004E0003A01811128C080913A0182B982B18260BB
:1004F00082B918B8E0910B01EA3028F4F0E0E0503E
:10050000FF4F808188B9E0910B01EA3008F491C077
:100510008DECE89F812D1124869586958695880F10
:10052000982F990F990F890FE81BF0E0E050FF4FCB
:10053000808188B9089580913A01813009F079C0AD
:1005400080910B018A3008F474C018B890913A0178
:1005500082B1892B82B9E0910B018DECE89FE12DEE
:100560001124E695E695E695E89F812D1124869560
:1005700086958695880F982F990F990F890FE81BFC
:10058000F0E0E050FF4F808188B9089580913A01F2
:10059000811127C080913A0182B982B1846082B909
:1005A00018B8E0910A01EA3028F4F0E0E050FF4F7B
:1005B000808188B9E0910A01EA30D8F18DECE89F9A
:1005C000812D1124869586958695880F982F990FF1
:1005D000990F890FE81BF0E0E050FF4F808188B948
:1005E000089580913A01813021F580910A018A3085
:1005F00000F118B890913A0182B1892B82B9E0914B
:100600000A018DECE89FE12D1124E695E695E6952B
:10061000E89F812D1124869586958695880F982FC1
:10062000990F990F890FE81BF0E0E050FF4F808190
:1006300088B908950F931F93CF93DF93D0E010E014
:1006400000E010C06C2F8D2F0E943B02813009F416
:100650000F5F823009F41F5FCF5F01C0C0E0C83078
:1006600088F3DF5FD830D0F300930B0110930A01B9
:100670000E940A086AE070E08CE390E00E94F007B4
:1006800080910B018A3068F41F928F938CEA90E07E
:100690009F938F930E94DF080F900F900F900F9001
:1006A0000EC08A3060F01F928F938CE990E09F9388
:1006B0008F930E94DF080F900F900F900F906CE0C7
:1006C00070E08CE390E00E94F00780910A018A308C
:1006D00068F41F928F938CE890E09F938F930E9411
:1006E000DF080F900F900F900F900EC08A3060F0CF
:1006F0001F928F938CE790E09F938F930E94DF0867
:100700000F900F900F900F90DF91CF911F910F914D
:100710000895EF92FF920F931F93CF93DF93C82F0B
:10072000D62F142F022FF42EF80EE22EE60E0E9482
:100730003B0290918501891719F1882319F1202F27
:10074000412F6E2D8F2D0E948903182F8F3FE1F0CE
:10075000409185016D2F8C2F0E94C301EC2FF0E09A
:10076000EE0FFF1FEE0FFF1FEE0FFF1FEB5BFE4FA5
:10077000ED0FF11D80918501808381E0810F05C01F
:1007800080E003C08FEF01C08FEFDF91CF911F9109
:100790000F91FF90EF9008951F93CF93DF93809177
:1007A0008501813019F410910D0102C010910C01E6
:1007B000DFEF27C0D11102C0CC23E9F060914401E2
:1007C0006C0F809187012C2F4D2F8D0F0E94890374
:1007D00091E0980F923078F090918501913031F44A
:1007E00090910D01890F80930D0105C090910C012E
:1007F000890F80930C01CF5F01C0CFEFC230D4F2DC
:10080000DF5FD230D4F380918501813021F4909163
:100810000D01191731F0823069F480910C01181321
:100820000BC045E060914401809187010E94C301A3
:1008300081E003C080E001C080E0DF91CF911F9193
:10084000089560914401809187010E943B028111CB
:100850002BC00E94CC03813039F10E94510240919B
:10086000850160914401809187010E94C301E0915C
:100870008701F0E09091440180918501EE0FFF1F08
:10088000EE0FFF1FEE0FFF1FEB5BFE4FE90FF11D99
:100890008083813021F482E08093850103C081E070
:1008A000809385010E941A0308950F931F93CF939D
:1008B000DF93C42FD22F142F180F022F060F0E9480
:1008C0003B0290918501891761F0882361F02D2FFB
:1008D0004C2F602F812F0E9455048F3F31F08F5F86
:1008E00005C080E003C08FEF01C08FEFDF91CF9193
:1008F0001F910F910895CF93DF93DFEF16C0D111B1
:1009000002C0CC2361F0609144016C0F809187019B
:100910002C2F4D2F8D0F0E945504181654F0CF5FC9
:1009200001C0CFEFC2305CF3DF5FD230D4F381E09F
:1009300001C080E0DF91CF910895CF93DF93809144
:100940008601882371F0D0914401C09187016D2FF9
:100950008C2F0E943B02482F6D2F8C2F0E94C301C9
:1009600013C00E947B04813041F445E06091440152
:10097000809187010E94C30107C043E06091440158
:10098000809187010E94C3019091860181E0891BBB
:1009900080938601DF91CF9108950F931F93CF939A
:1009A000DF93082F162FD0914401C09187016D2F3E
:1009B0008C2F0E943B02482F6D2F8C2F0E94C30169
:1009C00080918701800F8770809387016091440137
:1009D000610F6770609344010E949D04DF91CF9185
:1009E0001F910F91089520E015C0E22FF0E0EE0F67
:1009F000FF1FEE0FFF1FEE0FFF1FEB5BFE4FE90F18
:100A0000F11D8081882349F09F5F01C090E09830FC
:100A100060F32F5F2830D0F381E0089580E80E94D2
:100A2000BE0708951F93CF93DF938031B0F46830F1
:100A3000A0F4142FC62FD82F81E00E94EA076C2F54
:100A4000677080E1689F900111248D2F8F70822B39
:100A50000E94EA07812F0E94EA07DF91CF911F9140
:100A600008950F931F93CF938031A0F48B01C82F6B
:100A700083E00E94EA078C2F8F700E94EA07C0E093
:100A800007C0F801EC0FF11D80810E94EA07CF5FDB
:100A9000C830B8F3CF911F910F9108958FE00E9455
:100AA000EA0708950E940E050E94BD0040E060E044
:100AB0007BE480E090E00E94D6060E9413087894C0
:100AC00008950E9401086AE070E08AE090E00E94C8
:100AD000F0078EE191E09F938F930E94DF086CE016
:100AE00070E08AE090E00E94F00784EE90E09F932F
:100AF0008F930E94DF080E947F010F900F900F904C
:100B00000F900E941D07882339F080919C029091DC
:100B10009D020E94A10801C08FEF833731F0833519
:100B200021F00E94CD008F3F61F308950E940108DB
:100B30000E94D8010E94CD000E94240708958F9240
:100B40009F92AF92BF92CF92DF92EF92FF92CF939C
:100B5000DF930E941A030E942B084B015C018FEF68
:100B600087B987E081B9C0E07FC00E9463020E941C
:100B70001D07882391F0C13081F480919C029091EF
:100B80009D020E94A108803511F0803719F481E0A0
:100B90008C1BC82FC13009F467C0C11165C00E9409
:100BA000CD00811103C00E9421040DC0813029F4C1
:100BB00061E080E00E94CD0406C0823021F460E054
:100BC0008FEF0E94CD040E941D078823D1F18091F0
:100BD0009C0290919D020E94A108D82F873511F0A8
:100BE000873729F461E080E00E94CD041FC0813482
:100BF00011F0813629F460E08FEF0E94CD0416C019
:100C0000833511F0833729F46FEF80E00E94CD0423
:100C10000DC0843411F0843629F460E081E00E9434
:100C2000CD0404C0803211F40E942104D03511F0AB
:100C3000D03739F40E942B080E94BD0081E08C1B44
:100C4000C82F0E942B086B017C01D501C4018C5078
:100C50009E4FAF4FBF4FC816D906EA06FB0620F0DD
:100C60000E949D04460157010E94F304882309F461
:100C70007CCFDF91CF91FF90EF90DF90CF90BF902E
:100C8000AF909F908F9008956EE070E08AE090E0C2
:100C90000E94F0078AED90E09F938F930E94DF08F7
:100CA0006FE070E08AE090E00E94F0078CEB90E04B
:100CB0009F938F930E94DF080F900F900F900F90DB
:100CC0000E94CD008F3FE1F308950E9452050E94DB
:100CD00061050E9496050E949F050E944406F9CF77
:100CE000CF93C82F8A3019F48DE00E9470069FB709
:100CF000907802C0992329F1809189018F3FD1F327
:100D0000F894E091880181E08E0F80938801F0E0F3
:100D1000E657FE4FC083809189018F5F80938901E0
:100D2000809188018F3F11F410928801E1ECF0E08E
:100D3000808180628083992339F0789480E090E00C
:100D400005C081E090E002C080E090E0CF9108957E
:100D500080919B028823E1F32FB72078F89480914B
:100D6000890230919B0290E0831B91095AF4E09133
:100D7000890280919B02F0E0E81BF109E656FD4FE5
:100D800080810AC0E091890280919B02F0E0E81B1B
:100D9000F109E657FD4F808190919B02915090930D
:100DA0009B02222309F0789490E008951092880124
:100DB000109289011092890210929B0210929A025D
:100DC00040933B01DC01CB01880F991FAA1FBB1F79
:100DD000880F991FAA1FBB1F9C01AD01220F331F53
:100DE000441F551F60E072E18AE790E00E946008AE
:100DF000BA01A9014F5F5F4F6F4F7F4FDB01CA01FF
:100E00001AF40196A11DB11DB595A79597958795E3
:100E100001979093C5008093C400E1ECF0E088E175
:100E20008083808180688083ECE9F2E08EE091E04D
:100E30009383828391838083089590919B0281E0C4
:100E4000911101C080E008951092890210929B02D6
:100E500008951F920F920FB60F9211242F938F9324
:100E60009F93EF93FF9380918901882329F18091CB
:100E700088012091890190E0821B91095AF4E09148
:100E8000880180918901F0E0E81BF109E757FD4FE7
:100E900090810AC0E091880180918901F0E0E81B0F
:100EA000F109E657FE4F908180918901815080932E
:100EB00089019093C60005C0E1ECF0E080818F7D50
:100EC0008083FF91EF919F918F912F910F900FBE93
:100ED0000F901F9018951F920F920FB60F9211242A
:100EE0002F933F934F935F936F937F938F939F9332
:100EF000AF93BF93CF93EF93FF93C091C6008091C0
:100F00003B01882349F0809189018F3F29F060E0FF
:100F100070E08C2F0E94700680919B02803120F03F
:100F200081E080939A0218C0CD3009F4CAE0E091C4
:100F3000890281E08E0F80938902F0E0E657FD4F31
:100F4000C08380919B028F5F80939B028091890276
:100F5000803111F410928902FF91EF91CF91BF91EE
:100F6000AF919F918F917F916F915F914F913F9141
:100F70002F910F900FBE0F901F90189594B1906B0A
:100F800094B995B1906195B990E59CBD883021F0F8
:100F9000803211F0823019F491E09DBD01C01DBC7A
:100FA000803269F028F4883071F0803161F00EC031
:100FB000803429F0803851F48CB581608CBD8CB5BB
:100FC00082608CBD03C08CB581608CBD85B18F7E85
:100FD00085B908958EBD0DB407FEFDCF8EB5089579
:100FE0009F938F937F936F9382E391E09F938F936F
:100FF0000E94DF080F900F900F900F900F900F90AE
:1010000008958DE291E09F938F930E94DF080F90E7
:101010000F90089586E291E09F938F930E94DF08DE
:101020000F900F90089510923C0110923D01109284
:101030003E0110923F0116BC8CE787BD82E084BD63
:1010400083E085BDEEE6F0E080818260808385B339
:10105000827085BB08958FB7282F2078F89460910F
:101060003C0170913D0180913E0190913F0122230E
:1010700009F0789408951F920F920FB60F921124E1
:101080008F939F93AF93BF9380913C0190913D01CB
:10109000A0913E01B0913F010196A11DB11D809329
:1010A0003C0190933D01A0933E01B0933F01BF915D
:1010B000AF919F918F910F900FBE0F901F90189539
:1010C000052E97FB1EF400940E94770857FD07D069
:1010D0000E947F0807FC03D04EF40C9477085095CB
:1010E0004095309521953F4F4F4F5F4F0895909514
:1010F0008095709561957F4F8F4F9F4F0895A1E226
:101100001A2EAA1BBB1BFD010DC0AA1FBB1FEE1F81
:10111000FF1FA217B307E407F50720F0A21BB30BCC
:10112000E40BF50B661F771F881F991F1A9469F748
:1011300060957095809590959B01AC01BD01CF01A4
:101140000895CF93DF93EC012B8120FF33C026FF5E
:101150000AC02F7B2B838E819F8101969F838E8374
:101160008A8190E029C022FF0FC0E881F981808147
:10117000082E000C990B009719F420622B831AC0DB
:101180003196F983E8830EC0EA85FB85099597FFC0
:1011900009C02B81019611F080E201C080E1822B11
:1011A0008B8308C02E813F812F5F3F4F3F832E836B
:1011B000992702C08FEF9FEFDF91CF910895A0E0B4
:1011C000B0E0E5EEF8E00C94A40BAE01495F5F4F90
:1011D000DA016D917D91AD010CE912E0F801828197
:1011E0009381DC0113962C911397286013962C930E
:1011F0000E940509D8011296ED91FC911397238165
:10120000277F2383E4E00C94C00BABE0B0E0EBE07D
:10121000F9E00C94960B6C017B018A01FC011782AA
:101220001682838181FFCCC1CE0101963C01F6017B
:101230009381F70193FD859193FF81917F0188232D
:1012400009F4BAC1853239F493FD859193FF8191F8
:101250007F01853229F4B60190E00E94FC0AE7CFB5
:10126000912C212C312CFFE1F315D8F08B3279F041
:1012700038F4803279F08332A1F4232D20611DC02F
:101280008D3261F0803369F4232D216016C0832DE7
:101290008260382EE32DE4603E2E2AC0F32DF860E4
:1012A0001DC037FC2DC020ED280F2A3040F08E32B3
:1012B000B9F436FC81C1232D2064322E19C036FECC
:1012C00006C08AE0989E200D1124922E11C0EAE0FB
:1012D0002E9E200D1124222EF32DF0623F2E08C0E9
:1012E0008C3621F4832D8068382E02C0883641F474
:1012F000F70193FD859193FF81917F018111B3CF18
:10130000982F9F7D9554933028F40C5F1F4F9FE3D7
:1013100099830DC0833631F0833771F0833509F03E
:1013200059C021C0F801808189830E5F1F4F882436
:101330008394912C530113C02801F2E04F0E511CED
:10134000F801A080B18036FE03C0692D70E002C0B4
:101350006FEF7FEFC5010E94F10A4C018201F32D6E
:10136000FF773F2E16C0280122E0420E511CF801E3
:10137000A080B18036FE03C0692D70E002C06FEF1F
:101380007FEFC5010E94E60A4C01F32DF0683F2E65
:10139000820133FC1BC0822D90E088169906B0F4C0
:1013A000B60180E290E00E94FC0A2A94F4CFF50195
:1013B00037FC859137FE81915F01B60190E00E9474
:1013C000FC0A21102A9421E0821A910881149104C8
:1013D00071F7E8C0843611F0893641F5F80137FE1F
:1013E00007C060817181828193810C5F1F4F08C0AB
:1013F00060817181072E000C880B990B0E5F1F4FC7
:10140000F32DFF763F2E97FF09C09095809570953C
:1014100061957F4F8F4F9F4FF0683F2E2AE030E05D
:10142000A3010E94380B882E861845C0853731F4F9
:10143000232D2F7EB22E2AE030E025C0932D997FF8
:10144000B92E8F36C1F018F4883579F0B5C08037E1
:1014500019F0883721F0B0C0E92FE061BE2EB4FE4C
:101460000DC0FB2DF460BF2E09C034FE0AC0292F29
:101470002660B22E06C028E030E005C020E130E052
:1014800002C020E132E0F801B7FE07C0608171813F
:10149000828193810C5F1F4F06C06081718180E063
:1014A00090E00E5F1F4FA3010E94380B882E861814
:1014B000FB2DFF773F2E36FE0DC0232D2E7FA22E53
:1014C000891458F434FE0BC032FC09C0832D8E7E83
:1014D000A82E05C0B82CA32C03C0B82C01C0B92C71
:1014E000A4FE0FC0FE01E80DF11D8081803321F4C0
:1014F0009A2D997EA92E09C0A2FE06C0B394B3947A
:1015000004C08A2D867809F0B394A3FC11C0A0FE14
:1015100006C0B21488F4280C922C9B180EC0B2148A
:1015200060F4B60180E290E00E94FC0AB394F7CF29
:10153000B21418F42B1802C0982C212CA4FE10C051
:10154000B60180E390E00E94FC0AA2FE17C0A1FC55
:1015500003C088E790E002C088E590E0B6010CC0C7
:101560008A2D867859F0A1FE02C08BE201C080E28C
:10157000A7FC8DE2B60190E00E94FC0A891438F4C1
:10158000B60180E390E00E94FC0A9A94F7CF8A9417
:10159000F301E80DF11D8081B60190E00E94FC0A84
:1015A0008110F5CF222009F442CEB60180E290E00E
:1015B0000E94FC0A2A94F6CFF6018681978102C028
:1015C0008FEF9FEF2B96E2E10C94B20BFC0105909C
:1015D000615070400110D8F7809590958E0F9F1F35
:1015E0000895FC016150704001900110D8F780957A
:1015F00090958E0F9F1F08950F931F93CF93DF93A6
:10160000FB01238121FD03C08FEF9FEF2CC022FF40
:1016100016C046815781248135814217530744F40F
:10162000A081B1819D012F5F3F4F318320838C9337
:10163000268137812F5F3F4F3783268314C08B016C
:10164000EC01FB010084F185E02D0995892BE1F681
:10165000D80116968D919C911797019617969C9399
:101660008E931697CE01DF91CF911F910F91089520
:10167000FA01AA27283051F1203181F1E8946F93C3
:101680006E7F6E5F7F4F8F4F9F4FAF4FB1E03ED069
:10169000B4E03CD0670F781F891F9A1FA11D680F07
:1016A000791F8A1F911DA11D6A0F711D811D911D3A
:1016B000A11D20D009F468943F912AE0269F1124AF
:1016C0003019305D3193DEF6CF010895462F477013
:1016D000405D4193B3E00FD0C9F7F6CF462F4F706E
:1016E000405D4A3318F0495D31FD4052419302D0CC
:1016F000A9F7EACFB4E0A695979587957795679572
:10170000BA95C9F700976105710508959B01AC0171
:101710000A2E06945795479537952795BA95C9F798
:10172000620F731F841F951FA01D08952F923F9273
:101730004F925F926F927F928F929F92AF92BF92E1
:10174000CF92DF92EF92FF920F931F93CF93DF938D
:10175000CDB7DEB7CA1BDB0B0FB6F894DEBF0FBEEA
:10176000CDBF09942A88398848885F846E847D8437
:101770008C849B84AA84B984C884DF80EE80FD8039
:101780000C811B81AA81B981CE0FD11D0FB6F894AF
:0E179000DEBF0FBECDBFED010895F894FFCF70
:10179E003F065B4F666D7D077F6F020202020000FF
:1017AE000003000000007006A80600007D51597568
:1017BE007804787D5159757454545C5D03040403A8
:0417CE000303040409
:00000001FF
